:100000000C942A000C9434000C9434000C943400AA
:100010000C9434000C9434000C9434000C94340090
:100020000C9434000C9434000C9434000C94340080
:100030000C9434000C9434000C9434000C94340070
:100040000C9434000C9434000C9434000C94340060
:100050000C94340011241FBECFE5D4E0DEBFCDBF29
:100060000E9446000C9489000C94000020E030E0CF
:1000700040E050E0CA010197F1F7CA010197F1F79A
:100080002F5F3F4F22333105A9F708958FB5826A5C
:100090008FBD8EB58A618EBD8AEF93E297BD86BD16
:1000A00081B3806381BBA8E9B3E040E050E0E2EBBC
:1000B000F2E066EE70E0BBBDAABD20E030E0CA0110
:1000C0000197F1F7CA010197F1F72F5F3F4F2233F4
:1000D0003105A9F7FBBDEABD20E030E0CA01019778
:1000E000F1F7CA010197F1F72F5F3F4F2233310536
:1000F000A9F77BBD6ABD20E030E0CA010197F1F7A6
:10010000CA010197F1F72F5F3F4F22333105A9F75D
:06011000D2CFF894FFCFEE
:00000001FF
