S01C000070726F6A65745F717561647269636F70746572652E737265639D
S11300000C9494000C94B3000C94B3000C94B300BF
S11300100C94B3000C94B3000C94B3000C945205EC
S11300200C9489060C94B4050C94B3000C94B3009E
S11300300C94B3000C94B3000C94B3000C94B30070
S11300400C94B3000C94B3000C94B3000C94B30060
S11300500C9489050C94B3000C94B3000C94B30075
S11300600C94B3000C945D040C94B3000C94B30092
S11300700C94B3000C94B3000C94B3000C94B30030
S11300800C94A0050C94B3000C94B3000C94B3002E
S11300900C94B3000C94B3000C94B3000C94B30010
S11300A00C94B3000C94B3000C94B3000C94B30000
S11300B00C94B3000C94B3000C94B3000C94B300F0
S11300C00C94B3000C94B3000C94B3000C94B300E0
S11300D00C94B3000C94B3000C94B3000C94B300D0
S11300E00C94B3007D047D047D047D04A90489047B
S11300F07D04A904B304D404D404A904B304D4042B
S1130100D404A904B304D404D404A9048904DA04E7
S1130110A904B304D404D404A904B304D404D404B3
S1130120A904B304D404E50411241FBECFEFD1E223
S1130130DEBFCDBF12E0A0E0B2E0E4EAF3E100E00C
S11301400BBF02C007900D92A631B107D9F723E087
S1130150A6E1B2E001C01D92A237B207E1F70E9406
S11301600F060C94D0090C940000CF93C82F8A304A
S113017019F48DE00E94B5008091D00085FFFCCF7A
S1130180C093D60080E090E0CF9108958091D00094
S113019087FFFCCF8091D60090E0089588E090E03E
S11301A09093CD008093CC0088E18093C90086E0D1
S11301B08093CA0080E092E090936F0380936E0373
S11301C00895E5E0F1E080818F7E80830895E4E086
S11301D0F1E0808188618083E1E0F1E080818863DF
S11301E08083EAE0F1E08081886380835298539AA7
S11301F0589A599A6898699A6F980895FC01EF5A29
S1130200FF4F608171817896718360833296DC013F
S1130210AD5ABF4F2D913C91119731832083349671
S113022012962D913C911197318320833297129627
S11302302D913C9131832083749720813181B09634
S1130240318320837C9740815181B09651834083D0
S1130250A0914002B09141023496B183A083F397F8
S11302606233710514F0108202C061E06083DC0126
S1130270AB57BF4F57FF03C01D921C9204C041E00F
S113028050E04D935C93DC01A958BF4F4D915C91B4
S11302901197452B59F4293C310544F02081213034
S11302A069F421E030E02D933C9308C028333F4F9C
S11302B02CF42081213011F41D921C92DC01A558EC
S11302C0BF4F11961C921E92FC01ED58FF4F808186
S11302D091819C01255D3E4F2735324018F481E021
S11302E090E005C08D32914024F082E090E08D933F
S11302F09C930895FC01118210821382128215824C
S11303001482178216821186108613861286138A27
S1130310128A158A148A178A168A118E108E138EE1
S1130320128E158E148E168E178E10A211A212A282
S113033013A214A215A217A216A211A610A612A601
S113034013A614A615A616A617A610AA11AA12AAD1
S113035013AA14AA15AA16AA17AA10AE11AE12AEA1
S113036013AE14AE15AEDC01DE961D921D921D92E5
S11303701C92139714961D921D921D921C92139712
S1130380149611961C921E92129611961C921E920D
S1130390129611961C921E92129611961C921E92FF
S11303A012961C92119611961C921E9254961196B6
S11303B01C921E92129611961C921E9212961196DF
S11303C01C921E92149611961C921E9214961196CB
S11303D01C921E92129711961C921E9214971196BB
S11303E01C921E92189611961C921E9212961196A9
S11303F01C921E92129611961C921E92129611969F
S11304001C921E92129611961C921E9212961D9286
S11304101C92E158FF4F80E991E091838083089515
S11304200F931F93CF93DF939C012A5B3F4FF901F6
S11304304081518157FF02C011821082EC01C85BD8
S1130440DF4F4881598157FF02C019821882DC01AD
S1130450A65BBF4F4D915C91119757FF03C0119656
S11304601C921E928C01045B1F4FF8014081518144
S113047057FF02C011821082F90140815181493E27
S113048053402CF048EE53E0F901518340834881F6
S11304905981493E534024F048EE53E05983488340
S11304A04D915C911197493E53402CF048EE53E036
S11304B011965C934E93F80140815181493E53401B
S11304C02CF048EE53E0F80151834083825B9F4F48
S11304D0FC018081813059F4F90111821082198262
S11304E0188211961C921E92F80111821082F90151
S11304F08081918188519C4F9183808328813981A7
S113050028513C4F398328832D913C9111972851D0
S11305103C4F11963C932E93F80120813181285150
S11305203C4F318320839093A9008093A800888155
S113053099819093AB008093AA008D919C919093A4
S1130540AD008093AC0080819181909329018093C8
S11305502801DF91CF911F910F9108952BE932E08B
S113056040E050E060E070E080E490E00E94F40637
S11305702FEB32E040E050E060E070E080E490E097
S11305800E94F40626E732E040E050E060E070E0CC
S113059081E090E00E94F4062DEA32E040E050E071
S11305A060E070E081E090E00E94F40621ED32E02A
S11305B040E050E060E070E081E090E00E94F406EA
S11305C028E832E040E050E060E070E08CE090E049
S11305D00C94F4068BE992E00E94B6078FEB92E04C
S11305E00E94B60786E792E00E94B6078DEA92E081
S11305F00E94B60781ED92E00E94B60788E892E077
S11306000C94B607AF92BF92CF92DF92EF92FF9213
S11306100F931F93CF93DF93EC01FC01EF58FF4F2F
S113062080819181893E23E0920714F088EE93E063
S11306305E0146E4A40EB11CD5018D939C936E011A
S1130640B8E4CB0ED11CF601918380837E01FAE4D9
S1130650EF0EF11CD7018D939C938E01045B1F4F09
S1130660F801918380836E817F817F96808191815F
S11306702C853D85821B930B4DEA52E023E0880FC5
S1130680991F2A95E1F70E942107D5012D913C91EC
S11306901197280F391F2D933C93F6012081318146
S11306A0281B390B31832083D7012D913C9111975D
S11306B0281B390B2D933C93F80120813181820F43
S11306C0931F9183808368857985B3968081918116
S11306D02E853F85821B930B41ED52E033E0880F5A
S11306E0991F3A95E1F70E942107D5012D913C917C
S11306F01197280F391F2D933C93F60120813181E6
S1130700280F391F31832083D7012D913C911197F4
S1130710281B390B2D933C93F80120813181A901C9
S1130720481B590B518340836A857B85C359DF4F2E
S11307308881998148E852E09195819591090E94B8
S11307402107D5016D917C911197680F791F6D93E5
S11307507C93F60140815181481B590B518340839E
S1130760D7012D913C911197280F391F2D933C935C
S1130770D801ED91FC91DF01A81BB90BCD01F80163
S1130780B183A083643171052CF464E170E0D50178
S11307906D937C93443151052CF444E150E0F6010F
S11307A051834083243131052CF424E130E0D70116
S11307B02D933C9344972CF484E190E0F8019183C9
S11307C08083DF91CF911F910F91FF90EF90DF9085
S11307D0CF90BF90AF90089526E532E040E050E01E
S11307E060E070E083E390E00C94F40686E592E028
S11307F00C94B6070F931F93CF93DF93FC01ED572F
S1130800FF4FC8E2D3E2D183C083329700811181C4
S11308108091160290911702B801681B790B80E051
S113082090E00E9442092AE037ED43EA5CE30E942B
S11308309A080E940C0910931702009316029E0155
S1130840201B310B37FF02C02D5F3F4F3595279595
S113085035952795253631053CF4253B4FEF340774
S11308602CF425EB3FEF02C024E630E046E552E0ED
S1130870C9010E942107893621E092073CF48031A6
S11308804FEF94072CF480E19FEF02C088E691E0DB
S1130890845D9E4FDF91CF911F910F910895109227
S11308A0C50088E08093C40086E08093C20080E99C
S11308B08093C10080E090E008951F920F920FB6DC
S11308C00F9211240BB60F922F933F934F935F9384
S11308D06F937F938F939F93EF93FF932091C60021
S11308E080912002909121028232910508F075C016
S11308F0FC01EE58FF4F0C943908FC01E25FFD4FF8
S11309003081231709F450C0109221021092200262
S113091064C00196909321028093200280911E026C
S113092090911F02822B90931D0280931C028132AE
S113093020E8920739F08133904209F04EC084E2F6
S113094092E002C082E492E090931B0280931A0228
S113095044C00196909321028093200210921E02BB
S113096020931F023AC001969093210280932002A3
S11309708091180290911902AC01440F551FE09127
S11309801A02F0911B02E40FF51F40911E025091D0
S11309901F02BA01622B9B0131832083019690933D
S11309A019028093180219C0019690932102809332
S11309B0200213C0809114022813A6CF86E190E090
S11309C0909321028093200204C01092210210927D
S11309D020021092190210921802FF91EF919F9138
S11309E08F917F916F915F914F913F912F910F90D4
S11309F00BBE0F900FBE0F901F901895FC01A2E440
S1130A00B2E012964D915C91139720E82403C00143
S1130A10259F900D1124978386834D915C911197A6
S1130A202403C001259F900D11249187808714967B
S1130A308D919C91159723E0880F991F2A95E1F7D2
S1130A40938782870895FC01A4E2B2E08D919C9182
S1130A50119720E030E0A901481B590BCA01880F07
S1130A60991F9787868712968D919C911397281BBF
S1130A70390B220F331F3587248714968D919C914F
S1130A801597880F991F918B808B089580EA809326
S1130A906A0080EC8DBB81E08093680080936B00DA
S1130AA0789408951F920F920FB60F9211242F93EA
S1130AB03F938F939F9380914A0290914B02809130
S1130AC08400909185009093490280934802669B2C
S1130AD009C0809148029091490290932B0280931F
S1130AE02A020EC0809148029091490220912A0264
S1130AF030912B02821B930B90934102809340020E
S1130B009F918F913F912F910F900FBE0F901F9047
S1130B1018951F920F920FB60F9211248F939F93E3
S1130B2080914A0290914B02019690934B028093DC
S1130B304A029F918F910F900FBE0F901F901895AE
S1130B401F920F920FB60F9211248F939F9381E0FF
S1130B5090E090934D0280934C029F918F910F905F
S1130B600FBE0F901F9018951F920F920FB60F9201
S1130B7011240F931F932F933F934F935F936F937E
S1130B807F938F939F93AF93BF93189937C020910E
S1130B9084003091850080914A0290914B02A0E03C
S1130BA0B0E0DC0199278827820F931FA11DB11D96
S1130BB04091520250915302609154027091550237
S1130BC08C019D01041B150B260B370BB901A801E1
S1130BD076956795579547955093690240936802B7
S1130BE08093520290935302A0935402B0935502FF
S1130BF081E090E09093740280937302BF91AF916F
S1130C009F918F917F916F915F914F913F912F9120
S1130C101F910F910F900FBE0F901F9018950E9477
S1130C20E7000E9446050E94CE000E944F0483EE16
S1130C3092E00E947A010E94ED070E94F7070E9449
S1130C40BC070E94AE020E94EC030E94F6031092BD
S1130C506B0310926A0383EE92E00E94FE0083EE1F
S1130C6092E00E94230583EE92E00E94FE048091AC
S1130C705A0390915B03019771F78091310381309E
S1130C8061F410925503109254030E94AE020E9424
S1130C90EC030E94EA020E94F60380914C029091B8
S1130CA04D020197C1F680916A0390916B030196FE
S1130CB090936B0380936A032091680330916903D6
S1130CC02130310579F40597BCF083EE92E00E945F
S1130CD0FA03909355038093540310926B0310927C
S1130CE06A030AC080914C0390914D03909355037D
S1130CF0809354030E94E10083EE92E00E94020379
S1130D0083EE92E00E94100210924D0210924C0267
S1130D10A2CF1F920F920FB60F9211240BB60F920F
S1130D202F933F934F935F936F937F938F939F93EF
S1130D30EF93FF93609184007091850020912202CB
S1130D403091230280914E0290914F02AB01481BD7
S1130D50590BCA0195958795A901440F551FFA01AE
S1130D60EC5CFC4F918380832115310571F48C5424
S1130D70944097FD05C090933503809334030CC0D1
S1130D80109235031092340307C02830310524F43F
S1130D908C5D95409183808370934F0260934E02E3
S1130DA0FA01EC5CFC4F80819181813A9F402CF0E8
S1130DB0109223021092220206C02F5F3F4F3093FD
S1130DC0230220932202FF91EF919F918F917F91B3
S1130DD06F915F914F913F912F910F900BBE0F90A8
S1130DE00FBE0F901F901895CF93DF93FB01E9017D
S1130DF01A821B821C821D82198218829F838E8311
S1130E00798768875B874A87BC016F5F7F4F8FEF65
S1130E109FE70E9406087D876C879F012F5F3F4FE5
S1130E20032E000C440B550B6FEF7FEF8FEF9FE306
S1130E300E941A082E873F87488B598BDF91CF91E8
S1130E400895EF92FF920F931F93CF93DF938B013B
S1130E50FA019C01261B370B84859585821793071D
S1130E6084F0919581959109281739076CF0868152
S1130E709781289FE001299FD00D389FD00D112420
S1130E8005C0CFEFDFE702C0C1E0D0E8C901330FEE
S1130E90AA0BBB0B42815381648175819A01AB011A
S1130EA0280F391F4A1F5B1F86859785A089B18942
S1130EB082179307A407B5074CF482839383A48312
S1130EC0B5836FEF7FEF8FEF9FE31DC0B095A095C3
S1130ED0909581959F4FAF4FBF4F281739074A0709
S1130EE05B074CF482839383A483B58361E070E051
S1130EF080E090EC08C02283338344835583A0852B
S1130F00B1850E94420820813181201B310BA285CA
S1130F10B3852A9F70012B9FF00C3A9FF00C11248B
S1130F20118300838E01DD0F220B330BAB01BC0157
S1130F30400F511F621F731FC701FF0CAA0BBB0B8D
S1130F408A019B01080F191F2A1F3B1FC901B80101
S1130F5020E830E040E050E00E941A08C901DF9127
S1130F60CF911F910F91FF90EF900895FC01128291
S1130F701382148215820895E2E0F1E0808188638F
S1130F808083EBE0F1E08081886380833AEA3093E8
S1130F90A00022E12093A10080E197E29093A700B2
S1130FA08093A60030932001209321019093270180
S1130FB08093260188EE93E09093A9008093A80083
S1130FC09093AB008093AA009093AD008093AC0003
S1130FD0909329018093280108951092800082E063
S1130FE08093810081E086BB80936F000895109206
S1130FF090008AE08093910082E08093710080E405
S11310009CE99093990080939800089597FB072E8C
S113101016F4009407D077FD09D00E944A0807FC13
S113102005D03EF4909581959F4F089570956195F4
S11310307F4F0895052E97FB1EF400940E943108FB
S113104057FD07D00E945E0807FC03D04EF40C94B1
S1131050310850954095309521953F4F4F4F5F4F44
S1131060089590958095709561957F4F8F4F9F4F10
S11310700895EE0FFF1F0024001C0BBE0790F6918D
S1131080E02D0994B7FF0C9480080E948008821B0D
S1131090930B0895AA1BBB1B51E107C0AA1FBB1FDA
S11310A0A617B70710F0A61BB70B881F991F5A95F0
S11310B0A9F780959095BC01CD010895A1E21A2E5F
S11310C0AA1BBB1BFD010DC0AA1FBB1FEE1FFF1FE8
S11310D0A217B307E407F50720F0A21BB30BE40B38
S11310E0F50B661F771F881F991F1A9469F760957F
S11310F07095809590959B01AC01BD01CF01089539
S11311000E948B08A59F900DB49F900DA49F800D05
S1131110911D11240895A29FB001B39FC001A39F04
S1131120700D811D1124911DB29F700D811D11241C
S1131130911D08950E94AE080C9496090E948F098F
S113114058F00E94880940F029F45F3F29F00C947C
S11311507F0951110C94CA090C9485090E94A709AE
S113116068F39923B1F3552391F3951B550BBB27D2
S1131170AA2762177307840738F09F5F5F4F220F17
S1131180331F441FAA1FA9F335D00E2E3AF0E0E80E
S113119032D091505040E695001CCAF72BD0FE2F58
S11311A029D0660F771F881FBB1F261737074807EC
S11311B0AB07B0E809F0BB0B802DBF01FF279358A4
S11311C05F4F3AF09E3F510578F00C947F090C94E0
S11311D0CA095F3FE4F3983ED4F386957795679503
S11311E0B795F7959F5FC9F7880F911D96958795D9
S11311F097F90895E1E0660F771F881FBB1F6217F8
S113120073078407BA0720F0621B730B840BBA0BB5
S1131210EE1F88F7E09508950E9413096894B111B0
S11312200C94CA0908950E94AF0988F09F5798F05A
S1131230B92F9927B751B0F0E1F0660F771F881FD7
S1131240991F1AF0BA95C9F714C0B13091F00E94F1
S1131250C909B1E008950C94C909672F782F88272C
S1131260B85F39F0B93FCCF3869577956795B39518
S1131270D9F73EF490958095709561957F4F8F4F87
S11312809F4F0895E89409C097FB3EF4909580958C
S1131290709561957F4F8F4F9F4F9923A9F0F92F38
S11312A096E9BB279395F695879577956795B795B6
S11312B0F111F8CFFAF4BB0F11F460FF1BC06F5F9C
S11312C07F4F8F4F9F4F16C0882311F096E911C0AE
S11312D0772321F09EE8872F762F05C0662371F0CF
S11312E096E8862F70E060E02AF09A95660F771FE3
S11312F0881FDAF7880F9695879597F9089597F9D7
S11313009F6780E870E060E008959FEF80EC0895A7
S113131000240A94161617061806090608950024D0
S11313200A9412161306140605060895092E03944A
S1131330000C11F4882352F0BB0F40F4BF2B11F4BE
S113134060FF04C06F5F7F4F8F4F9F4F089557FD1D
S11313509058440F551F59F05F3F71F04795880F1F
S113136097FB991F61F09F3F79F0879508951216B6
S113137013061406551FF2CF4695F1DF08C0161662
S113138017061806991FF1CF869571056105089413
S11313900895E894BB2766277727CB0197F908952A
S10713A0F894FFCFEB
S11313A40000000300000000B500C6000000FAFFBE
S10913B4361E00000C00CF
S9030000FC
